:020000040800F2
:100000000080012065140008B5140008B51400082C
:10001000B5140008B5140008B5140008000000006D
:10002000000000000000000000000000B5140008FF
:10003000B514000800000000B5140008B51400084D
:1000400000000000B5140008B5140008B51400083D
:10005000B5140008B5140008B5140008B51400085C
:10006000B5140008B5140008B5140008000000001D
:100070000000000000000000000000000000000080
:100080000000000000000000B5140008000000009F
:10009000000000000000000000000000B51400088F
:1000A000B5140008B5140008B5140008B51400080C
:1000B000B5140008B514000800000000B5140008CD
:1000C000B5140008B5140008B5140008B5140008EC
:1000D000B51400080000000000000000000000004F
:1000E000B5140008B5140008B5140008000000009D
:1000F0000000000000000000000000000000000000
:1001000000000000B514000800000000B51400084D
:1001100000000000000000000000000000000000DF
:1001200000000000000000000000000000000000CF
:1001300000000000000000000000000000000000BF
:10014000000000000000000000000000B5140008DE
:10015000000000000000000000000000000000009F
:10016000B5140008B51400080000000000000000ED
:10017000000000000000000000000000000000007F
:1001800000000000B514000800000000000000009E
:04019000B51400089A
:1001940010B5054C237833B9044B13B10448AFF3BD
:1001A40000800123237010BD000000200000000027
:1001B4000015000808B5034B1BB103490348AFF30E
:1001C400008008BD000000000400002000150008A5
:1001D40090B482B000AF0446084611461A4623463E
:1001E400FB710346BB710B467B7113463B71FB7974
:1001F400072B00F2C78301A252F823F02102000862
:1002040007030008ED030008ED040008D305000807
:10021400B9060008BD070008A30800087B79012B74
:1002240002D0022B36D06BE0A94B1B68BA7952007E
:10023400012101FA02F21146A54A0B431360A44BB3
:100244001B68BA7952000132012101FA02F2D24349
:1002540011469F4A0B4013603B79002B02D0012BBF
:100264000CD016E09B4B1B68BA79012101FA02F20B
:10027400D2431146974A0B4013600AE0954B1B6822
:10028400BA79012101FA02F21146924A0B43136032
:1002940000BF35E08E4B1B68BA795200012101FA88
:1002A40002F2D24311468A4A0B401360884B1B6802
:1002B400BA7952000132012101FA02F21146844A4C
:1002C4000B4313603B79002B02D0012B0CD016E0BA
:1002D400804B1B68BA79012101FA02F2D24311461C
:1002E4007C4A0B4013600AE07A4B1B68BA790121FF
:1002F40001FA02F21146774A0B43136000BF00BFB4
:1003040041E37B79012B02D0022B36D06BE0724B98
:100314001B68BA795200012101FA02F211466E4AB1
:100324000B4313606C4B1B68BA79520001320121F4
:1003340001FA02F2D2431146674A0B4013603B793B
:10034400002B02D0012B0CD016E0644B1B68BA7949
:10035400012101FA02F2D2431146604A0B401360B4
:100364000AE05E4B1B68BA79012101FA02F21146D8
:100374005A4A0B43136000BF35E0574B1B68BA79E8
:100384005200012101FA02F2D2431146524A0B40B3
:100394001360514B1B68BA7952000132012101FAF2
:1003A40002F211464C4A0B4313603B79002B02D0F6
:1003B400012B0CD016E0494B1B68BA79012101FAD4
:1003C40002F2D2431146454A0B4013600AE0434B04
:1003D4001B68BA79012101FA02F211463F4A0B4324
:1003E400136000BF00BFCEE27B79012B02D0022B49
:1003F40036D06BE03A4B1B68BA795200012101FAFE
:1004040002F21146364A0B431360354B1B68BA7926
:1004140052000132012101FA02F2D2431146304A5C
:100424000B4013603B79002B02D0012B0CD016E05B
:100434002C4B1B68BA79012101FA02F2D24311460E
:10044400284A0B4013600AE0264B1B68BA79012145
:1004540001FA02F21146234A0B43136000BF35E050
:100464001F4B1B68BA795200012101FA02F2D243F0
:1004740011461B4A0B401360194B1B68BA79520092
:100484000132012101FA02F21146154A0B431360AD
:100494003B79002B02D0012B0CD016E0114B1B68CA
:1004A400BA79012101FA02F2D24311460D4A0B40F6
:1004B40013600AE00B4B1B68BA79012101FA02F2BE
:1004C4001146084A0B43136000BF00BF5BE200BF44
:1004D4000000024004000240000402400404024000
:1004E40000080240040802407B79012B02D0022B51
:1004F40036D06BE0A94B1B68BA795200012101FA8E
:1005040002F21146A54A0B431360A44B1B68BA7947
:1005140052000132012101FA02F2D24311469F4AEC
:100524000B4013603B79002B02D0012B0CD016E05A
:100534009B4B1B68BA79012101FA02F2D24311469E
:10054400974A0B4013600AE0964B1B68BA79012165
:1005540001FA02F21146934A0B43136000BF35E0DF
:100564008E4B1B68BA795200012101FA02F2D24380
:1005740011468A4A0B401360884B1B68BA795200B3
:100584000132012101FA02F21146844A0B4313603D
:100594003B79002B02D0012B0CD016E0804B1B685A
:1005A400BA79012101FA02F2D24311467C4A0B4086
:1005B40013600AE07A4B1B68BA79012101FA02F24E
:1005C4001146774A0B43136000BF00BFDBE17B7920
:1005D400012B02D0022B36D06BE0734B1B68BA7927
:1005E4005200012101FA02F211466F4A0B431360D3
:1005F4006D4B1B68BA7952000132012101FA02F2F3
:10060400D2431146684A0B4013603B79002B02D059
:10061400012B0CD016E0654B1B68BA79012101FA55
:1006240002F2D2431146614A0B4013600AE05F4B69
:100634001B68BA79012101FA02F211465B4A0B43A5
:10064400136000BF35E0584B1B68BA795200012192
:1006540001FA02F2D2431146534A0B401360524B43
:100664001B68BA7952000132012101FA02F21146E3
:100674004D4A0B4313603B79002B02D0012B0CD065
:1006840016E04A4B1B68BA79012101FA02F2D243FF
:100694001146464A0B4013600AE0444B1B68BA7982
:1006A400012101FA02F21146404A0B43136000BFD4
:1006B40000BF68E17B79012B02D0022B36D06BE0BE
:1006C4003B4B1B68BA795200012101FA02F2114630
:1006D400374A0B431360364B1B68BA795200013218
:1006E400012101FA02F2D2431146314A0B40136050
:1006F4003B79002B02D0012B0CD016E02D4B1B684C
:10070400BA79012101FA02F2D2431146294A0B4077
:1007140013600AE0274B1B68BA79012101FA02F23F
:100724001146244A0B43136000BF35E0204B1B687D
:10073400BA795200012101FA02F2D24311461C4A4D
:100744000B4013601A4B1B68BA7952000132012125
:1007540001FA02F21146164A0B4313603B79002B4F
:1007640002D0012B0CD016E0124B1B68BA79012180
:1007740001FA02F2D24311460E4A0B4013600AE01A
:100784000C4B1B68BA79012101FA02F21146094A9D
:100794000B43136000BF00BFF5E000BF000C024034
:1007A400040C024004040240001002400410024001
:1007B40000140240041402407B79012B02D0022B66
:1007C40036D06BE0724B1B68BA795200012101FAF2
:1007D40002F211466E4A0B4313606D4B1B68BA79E3
:1007E40052000132012101FA02F2D2431146684A51
:1007F4000B4013603B79002B02D0012B0CD016E088
:10080400644B1B68BA79012101FA02F2D243114602
:10081400604A0B4013600AE05E4B1B68BA79012101
:1008240001FA02F211465B4A0B43136000BF35E044
:10083400574B1B68BA795200012101FA02F2D243E4
:100844001146534A0B401360514B1B68BA7952004E
:100854000132012101FA02F211464D4A0B431360A1
:100864003B79002B02D0012B0CD016E0494B1B68BE
:10087400BA79012101FA02F2D2431146454A0B40EA
:1008840013600AE0434B1B68BA79012101FA02F2B2
:100894001146404A0B43136000BF00BF73E07B79ED
:1008A400012B02D0022B36D06BE03B4B1B68BA798C
:1008B4005200012101FA02F21146374A0B43136038
:1008C400354B1B68BA7952000132012101FA02F258
:1008D400D2431146304A0B4013603B79002B02D0BF
:1008E400012B0CD016E02D4B1B68BA79012101FABB
:1008F40002F2D2431146294A0B4013600AE0274B07
:100904001B68BA79012101FA02F21146234A0B430A
:10091400136000BF35E0204B1B68BA7952000121F7
:1009240001FA02F2D24311461B4A0B4013601A4BE0
:100934001B68BA7952000132012101FA02F2114610
:10094400154A0B4313603B79002B02D0012B0CD0CA
:1009540016E0124B1B68BA79012101FA02F2D24364
:1009640011460E4A0B4013600AE00C4B1B68BA791F
:10097400012101FA02F21146084A0B43136000BF39
:1009840000BF00E000BF00BF0837BD4690BC704701
:100994000018024004180240001C0240041C0240DB
:1009A40080B483B000AF0346FB710B46BB711346A2
:1009B4007B71FB79072B00F2B18101A252F823F07D
:1009C400E5090008510A0008B50A0008130B0008DD
:1009D400710B0008CF0B00082D0C0008C30C000895
:1009E400BB79012B02D0022B14D02EE09B4B4FF08D
:1009F40055321A607B79002B02D0012B04D008E019
:100A0400974B00221A6004E0954B4FF6FF721A6070
:100A140000BF1AE0914B1B68904A43F0AA3313605D
:100A24007B79002B02D0012B05D00DE08C4B8C4A36
:100A34001B68136008E08A4B1B68894A6FEA1343FA
:100A44006FEA0343136000BF00BF68E1BB79012B69
:100A540002D0022B17D02AE0804B1B687F4A43F058
:100A6400553313607B79002B02D0012B05D009E0AC
:100A74007C4B7C4A1B68136004E07A4B4FF6FF7290
:100A84001A6000BF13E0784B4FF0AA321A607B79EA
:100A9400002B02D0012B04D008E0724B00221A6014
:100AA40004E0704B4FF6FF721A6000BF00BF36E1DE
:100AB400BB79012B02D0022B14D027E06B4B4FF0F3
:100AC40055321A607B79002B02D0012B04D008E048
:100AD400674B00221A6004E0654B4FF6FF721A6000
:100AE40000BF13E0614B4FF0AA321A607B79002BF0
:100AF40002D0012B04D008E05D4B00221A6004E010
:100B04005B4B4FF6FF721A6000BF00BF07E1BB7971
:100B1400012B02D0022B14D027E0564B4FF0553254
:100B24001A607B79002B02D0012B04D008E0524BD1
:100B340000221A6004E0504B4FF6FF721A6000BFA7
:100B440013E04C4B4FF0AA321A607B79002B02D091
:100B5400012B04D008E0484B00221A6004E0464B05
:100B64004FF6FF721A6000BF00BFD8E0BB79012BBB
:100B740002D0022B14D027E0404B4FF055321A60BC
:100B84007B79002B02D0012B04D008E03C4B0022DF
:100B94001A6004E03A4B4FF6FF721A6000BF13E08C
:100BA400364B4FF0AA321A607B79002B02D0012B0E
:100BB40004D008E0324B00221A6004E0304B4FF6B8
:100BC400FF721A6000BF00BFA9E0BB79012B02D0FD
:100BD400022B14D027E02B4B4FF055321A607B794F
:100BE400002B02D0012B04D008E0274B00221A600E
:100BF40004E0254B4FF6FF721A6000BF13E0214B4F
:100C04004FF0AA321A607B79002B02D0012B04D05A
:100C140008E01D4B00221A6004E01B4B4FF6FF72E4
:100C24001A6000BF00BF7AE0BB79012B02D0022B0F
:100C340030D043E0154B4FF055321A607B79002BCE
:100C440002D0012B04D008E0114B00221A6004E00A
:100C54000F4B4FF6FF721A6000BF2FE000000240F6
:100C64000400024004040240000402400008024060
:100C740004080240000C0240040C02400010024030
:100C84000410024000140240041402400018024000
:100C940004180240254B4FF0AA321A607B79002BCE
:100CA40002D0012B04D008E0214B00221A6004E09A
:100CB4001F4B4FF6FF721A6000BF00BF2FE0BB79D5
:100CC400012B02D0022B14D027E01A4B4FF05532DF
:100CD4001A607B79002B02D0012B04D008E0164B5C
:100CE40000221A6004E0144B4FF6FF721A6000BF32
:100CF40013E0104B4FF0AA321A607B79002B02D01C
:100D0400012B04D008E00C4B00221A6004E00A4BCB
:100D14004FF6FF721A6000BF00BF00E000BF00BFC3
:100D24000C37BD465DF8047B704700BF00180240D5
:100D340004180240001C0240041C024080B483B02A
:100D440000AF0346FB710B46BB7113467B71FB7905
:100D5400072B00F2FF8001A252F823F0810D000856
:100D6400BD0D0008F90D0008350E0008710E0008CD
:100D7400AB0E0008E50E00081F0F00087B79012B5D
:100D84000AD1804B1B68BA79012101FA02F211469B
:100D94007C4A0B431360DFE07B79002B40F0DC805E
:100DA400784B1B68BA79012101FA02F2D243114649
:100DB400744A0B401360CFE07B79012B0AD1724B4C
:100DC4001B68BA79012101FA02F211466E4A0B43FB
:100DD4001360C3E07B79002B40F0C0806A4B1B6832
:100DE400BA79012101FA02F2D2431146664A0B4054
:100DF4001360B3E07B79012B0AD1644B1B68BA7989
:100E0400012101FA02F21146604A0B431360A7E084
:100E14007B79002B40F0A4805C4B1B68BA790121DC
:100E240001FA02F2D2431146584A0B40136097E08C
:100E34007B79012B0AD1564B1B68BA79012101FA3F
:100E440002F21146524A0B4313608BE07B79002B6C
:100E540040F088804E4B1B68BA79012101FA02F2F6
:100E6400D24311464A4A0B4013607BE07B79012B45
:100E74000AD1484B1B68BA79012101FA02F21146E2
:100E8400444A0B4313606FE07B79002B6CD1414BD8
:100E94001B68BA79012101FA02F2D24311463D4A94
:100EA4000B40136060E07B79012B0AD13A4B1B683D
:100EB400BA79012101FA02F21146374A0B43136051
:100EC40054E07B79002B51D1334B1B68BA79012153
:100ED40001FA02F2D24311462F4A0B40136045E057
:100EE4007B79012B0AD12B4B1B68BA79012101FABA
:100EF40002F21146274A0B43136039E07B79002B39
:100F040036D1264B1B68BA79012101FA02F2D24389
:100F14001146224A0B4013602AE07B79012B0AD147
:100F24001F4B1B68BA79012101FA02F211461C4ACF
:100F34000B4313601EE07B79002B1BD1184B1B68FD
:100F4400BA79012101FA02F2D2431146144A0B4044
:100F540013600FE000BF0EE000BF0CE000BF0AE02A
:100F640000BF08E000BF06E000BF04E000BF02E0ED
:100F740000BF00E000BF00BF0C37BD465DF8047B36
:100F8400704700BF140002401404024014080240D9
:100F9400140C0240141002401414024014180240AD
:100FA400141C024080B483B000AF03460A46FB71B0
:100FB4001346BB71FB79072B00F28C8001A252F817
:100FC40023F000BFE90F00080710000825100008EF
:100FD40043100008611000087F1000089D100008ED
:100FE400BB100008BB79012B04D1464B4FF6FF72AE
:100FF4001A6071E0BB79002B6ED1424B00221A605B
:101004006AE0BB79012B04D13F4B4FF6FF721A60A3
:1010140064E0BB79002B61D13B4B00221A605DE098
:10102400BB79012B04D1394B4FF6FF721A6057E09C
:10103400BB79002B54D1354B00221A6050E0BB79A8
:10104400012B04D1324B4FF6FF721A604AE0BB7990
:10105400002B47D12E4B00221A6043E0BB79012BB1
:1010640004D12C4B4FF6FF721A603DE0BB79002B84
:101074003AD1284B00221A6036E0BB79012B04D107
:10108400254B4FF6FF721A6030E0BB79002B2DD14F
:10109400214B00221A6029E0BB79012B04D11F4B9C
:1010A4004FF6FF721A6023E0BB79002B20D11B4B53
:1010B40000221A601CE0BB79012B04D1184B4FF6B7
:1010C400FF721A6016E0BB79002B13D1144B002277
:1010D4001A600FE000BF0EE000BF0CE000BF0AE0A2
:1010E40000BF08E000BF06E000BF04E000BF02E06C
:1010F40000BF00E000BF00BF0C37BD465DF8047BB5
:10110400704700BF14000240140402401408024057
:10111400140C02401410024014140240141802402B
:10112400141C024080B485B000AF78600023FB60DB
:101134000DE000237B8103E000BF7B8901337B81C9
:101144007B89B3F50D7FF7D9FB680133FB60FA683F
:101154007B689A42EDD300BF1437BD465DF8047B2B
:10116400704780B582B000AF0346FB7100230122B3
:1011740005210120FFF72CF800230122072101207B
:10118400FFF726F8FB79002B39D100230122042133
:101194000220FFF71DF80023012205210220FFF79A
:1011A40017F80023012206210220FFF711F800237B
:1011B400012207210220FFF70BF81E20FFF7B2FFE0
:1011C400202000F03DF80120FFF7ACFF282000F0BC
:1011D40037F80120FFF7A6FF062000F031F80120C0
:1011E400FFF7A0FF012000F02BF80120FFF79AFF82
:1011F4000F2000F025F80320FFF794FF1CE0FB7993
:10120400012B19D1002201210120FFF7C9FB1E2067
:10121400FFF788FF382000F013F80120FFF782FF62
:101224000E2000F00DF80120FFF77CFF012000F0F4
:1012340007F80320FFF776FF00BF0837BD4680BDDF
:1012440080B582B000AF0346FB7100220521012066
:10125400FFF774FDFB7923F00F03DBB2194602207C
:10126400FFF7A0FE012207210120FFF767FD0120FF
:10127400FFF758FF002207210120FFF75FFD01203F
:10128400FFF750FFFB791B01DBB219460220FFF781
:1012940089FE012207210120FFF750FD0120FFF7FD
:1012A40041FF002207210120FFF748FD0120FFF73D
:1012B40039FF00BF0837BD4680BD80B582B000AF9E
:1012C4000346FB71012205210120FFF737FDFB795D
:1012D40023F00F03DBB219460220FFF763FE01225D
:1012E40007210120FFF72AFD0120FFF71BFF002241
:1012F40007210120FFF722FDFB791B01DBB2194610
:101304000220FFF74FFE012207210120FFF716FDFF
:101314000120FFF707FF002207210120FFF70EFD40
:101324000120FFF7FFFE00BF0837BD4680BD000067
:1013340080B483B000AF00237B60144B1B68134A56
:1013440043F00103136002E07B6801337B600F4BC1
:101354001B685B0803F00103002B04D17B6842F295
:101364000F729342F0D90A4B1B68094A23F0010318
:101374001360074B1B68064A23F00203136000BF87
:101384000C37BD465DF8047B704700BF003802404F
:101394000838024080B483B000AF03460A46FB71AC
:1013A4001346BB71FB79032B36D801A252F823F004
:1013B400C5130008DB130008F11300080714000824
:1013C400184B1B68BA79012101FA02F21146154A39
:1013D4000B43136020E0144B1B68BA79012101FA16
:1013E40002F21146104A0B43136015E00F4B1B68C1
:1013F400BA79012101FA02F211460C4A0B43136037
:101404000AE00B4B1B68BA79012101FA02F211467A
:10141400074A0B43136000BF00BF0C37BD465DF89D
:10142400047B704730380240343802404038024070
:101434004438024080B500AFFFF77AFF0221002054
:10144400FFF7A8FF01210020FFF7A4FF0020FFF70A
:1014540088FE6320FFF731FF4420FFF72EFFFEE7ED
:101464000D488546AFF300800C480D490D4A002312
:1014740002E0D458C4500433C4188C42F9D30A4A45
:101484000A4C002301E013600432A242FBD300F0B3
:1014940011F8FFF7CFFFFEE70080012000000020D5
:1014A4000000002020150008000000201C0000207F
:1014B400FEE7000070B50D4E0D4CA41BA4100025D2
:1014C400A54209D10B4E0C4C00F018F8A41BA41033
:1014D4000025A54205D170BD56F825309847013541
:1014E400EEE756F8253098470135F2E7181500085D
:1014F40018150008181500081C150008F8B500BFD9
:10150400F8BC08BC9E467047F8B500BFF8BC08BCE0
:041514009E46704738
:04151800B90100080D
:04151C00950100082D
:040000050800146576
:00000001FF
