:020000040800F2
:1000000000800120C9190008191A0008191A0008EF
:10001000191A0008191A0008191A0008000000002F
:10002000000000000000000000000000191A000895
:10003000191A000800000000191A0008191A00080F
:1000400000000000191A0008191A0008191A0008FF
:10005000191A0008191A0008191A0008191A0008B4
:10006000191A0008191A0008191A000800000000DF
:100070000000000000000000000000000000000080
:100080000000000000000000191A00080000000035
:10009000000000000000000000000000191A000825
:1000A000191A0008191A0008191A0008191A000864
:1000B000191A0008191A000800000000191A00088F
:1000C000191A0008191A0008191A0008191A000844
:1000D000191A0008000000000000000000000000E5
:1000E000191A0008191A0008191A0008000000005F
:1000F0000000000000000000000000000000000000
:1001000000000000191A000800000000191A000879
:1001100000000000000000000000000000000000DF
:1001200000000000000000000000000000000000CF
:1001300000000000000000000000000000000000BF
:10014000000000000000000000000000191A000874
:10015000000000000000000000000000000000009F
:10016000191A0008191A0008000000000000000019
:10017000000000000000000000000000000000007F
:1001800000000000191A0008000000000000000034
:04019000191A000830
:1001940010B5054C237833B9044B13B10448AFF3BD
:1001A40000800123237010BD000000200000000027
:1001B400641A000808B5034B1BB103490348AFF3A5
:1001C400008008BD0000000004000020641A00083C
:1001D40090B482B000AF0446084611461A4623463E
:1001E400FB710346BB710B467B7113463B71FB7974
:1001F400072B00F2B28401A252F823F02102000876
:10020400410300085F04000897050008B5060008CC
:10021400EF0700080D0900082B0A00087B79012B61
:1002240004D0022B38D0002B6CD085E0AA4B1B687D
:10023400BA795200012101FA02F21146A64A0B438F
:100244001360A54B1B68BA7952000132012101FAEF
:1002540002F2D2431146A04A0B4013603B79002BB3
:1002640002D0012B0CD016E09C4B1B68BA790121FB
:1002740001FA02F2D2431146984A0B4013600AE095
:10028400964B1B68BA79012101FA02F21146934A8E
:100294000B43136000BF4FE08F4B1B68BA795200C9
:1002A400012101FA02F2D24311468B4A0B4013603A
:1002B400894B1B68BA7952000132012101FA02F21A
:1002C4001146854A0B4313603B79002B02D0012B66
:1002D4000CD016E0814B1B68BA79012101FA02F2B5
:1002E400D24311467D4A0B4013600AE07B4B1B68E6
:1002F400BA79012101FA02F21146784A0B431360DC
:1003040000BF19E0744B1B68BA795200012101FA4D
:1003140002F2D2431146704A0B4013606E4B1B68C5
:10032400BA7952000132012101FA02F2D243114694
:10033400694A0B40136000BF00F010BC7B79012BAD
:1003440004D0022B38D0002B6CD085E0644B1B68A2
:10035400BA795200012101FA02F21146604A0B43B4
:1003640013605F4B1B68BA7952000132012101FA14
:1003740002F2D24311465A4A0B4013603B79002BD8
:1003840002D0012B0CD016E0564B1B68BA79012120
:1003940001FA02F2D2431146524A0B4013600AE0BA
:1003A400504B1B68BA79012101FA02F211464D4AF9
:1003B4000B43136000BF4FE0494B1B68BA795200EE
:1003C400012101FA02F2D2431146454A0B4013605F
:1003D400434B1B68BA7952000132012101FA02F23F
:1003E40011463F4A0B4313603B79002B02D0012B8B
:1003F4000CD016E03B4B1B68BA79012101FA02F2DA
:10040400D2431146374A0B4013600AE0354B1B6850
:10041400BA79012101FA02F21146324A0B43136000
:1004240000BF19E02E4B1B68BA795200012101FA72
:1004340002F2D24311462A4A0B401360284B1B6830
:10044400BA7952000132012101FA02F2D243114673
:10045400234A0B40136000BF80E37B79012B04D057
:10046400022B45D0002B79D092E01F4B1B68BA7940
:100474005200012101FA02F211461B4A0B43136098
:10048400194B1B68BA7952000132012101FA02F2B8
:10049400D2431146144A0B4013603B79002B02D01F
:1004A400012B0CD016E0114B1B68BA79012101FA1B
:1004B40002F2D24311460D4A0B4013600AE00B4B83
:1004C4001B68BA79012101FA02F21146074A0B436B
:1004D400136000BF5CE000BF000002400400024063
:1004E40000040240040402400008024004080240E0
:1004F400A94B1B68BA795200012101FA02F2D243D6
:100504001146A54A0B401360A34B1B68BA795200ED
:100514000132012101FA02F211469F4A0B43136092
:100524003B79002B02D0012B0CD016E09B4B1B68AF
:10053400BA79012101FA02F2D2431146974A0B40DB
:1005440013600AE0954B1B68BA79012101FA02F2A3
:100554001146924A0B43136000BF19E08E4B1B688F
:10056400BA795200012101FA02F2D24311468A4AB1
:100574000B401360884B1B68BA7952000132012189
:1005840001FA02F2D2431146834A0B40136000BFC2
:10059400E4E27B79012B04D0022B38D0002B6CD001
:1005A40085E07F4B1B68BA795200012101FA02F2FF
:1005B40011467B4A0B431360794B1B68BA7952008E
:1005C4000132012101FA02F2D2431146744A0B406E
:1005D40013603B79002B02D0012B0CD016E0714B39
:1005E4001B68BA79012101FA02F2D24311466D4A1D
:1005F4000B4013600AE06C4B1B68BA79012101FAC5
:1006040002F21146684A0B43136000BF4FE0644B8B
:100614001B68BA795200012101FA02F2D243114651
:100624005F4A0B4013605E4B1B68BA79520001327B
:10063400012101FA02F21146594A0B4313603B7936
:10064400002B02D0012B0CD016E0564B1B68BA7954
:10065400012101FA02F2D2431146524A0B401360BF
:100664000AE0504B1B68BA79012101FA02F21146E3
:100674004C4A0B43136000BF19E0494B1B68BA791D
:100684005200012101FA02F2D2431146444A0B40BE
:100694001360434B1B68BA7952000132012101FAFD
:1006A40002F2D24311463E4A0B40136000BF55E2AA
:1006B4007B79012B04D0022B38D0002B7AD093E025
:1006C4003A4B1B68BA795200012101FA02F2114631
:1006D400364A0B431360354B1B68BA79520001321A
:1006E400012101FA02F2D2431146304A0B40136051
:1006F4003B79002B02D0012B0CD016E02C4B1B684D
:10070400BA79012101FA02F2D2431146284A0B4078
:1007140013600AE0264B1B68BA79012101FA02F240
:100724001146234A0B43136000BF5DE01F4B1B6857
:10073400BA795200012101FA02F2D24311461B4A4E
:100744000B401360194B1B68BA7952000132012126
:1007540001FA02F21146154A0B4313603B79002B50
:1007640002D0012B0CD016E0114B1B68BA79012181
:1007740001FA02F2D24311460D4A0B4013600AE01B
:100784000B4B1B68BA79012101FA02F21146084A9F
:100794000B43136000BF27E0000802400408024036
:1007A400000C0240040C0240040402400010024009
:1007B40004100240A04B1B68BA795200012101FACF
:1007C40002F2D24311469C4A0B4013609A4B1B68B9
:1007D400BA7952000132012101FA02F2D2431146E0
:1007E400954A0B40136000BFB8E17B79012B04D01C
:1007F400022B38D0002B6CD085E0904B1B68BA7963
:100804005200012101FA02F211468C4A0B43136093
:100814008A4B1B68BA7952000132012101FA02F2B3
:10082400D2431146854A0B4013603B79002B02D01A
:10083400012B0CD016E0824B1B68BA79012101FA16
:1008440002F2D24311467E4A0B4013600AE07C4B0D
:100854001B68BA79012101FA02F21146784A0B4366
:10086400136000BF4FE0754B1B68BA795200012139
:1008740001FA02F2D2431146704A0B4013606F4BE7
:100884001B68BA7952000132012101FA02F21146C1
:100894006A4A0B4313603B79002B02D0012B0CD026
:1008A40016E0674B1B68BA79012101FA02F2D243C0
:1008B4001146634A0B4013600AE0614B1B68BA7926
:1008C400012101FA02F211465D4A0B43136000BF95
:1008D40019E05A4B1B68BA795200012101FA02F25D
:1008E400D2431146554A0B401360544B1B68BA79E6
:1008F40052000132012101FA02F2D24311464F4A59
:100904000B40136000BF29E17B79012B04D0022B3B
:1009140038D0002B6CD085E04A4B1B68BA79520062
:10092400012101FA02F21146464A0B431360454B7A
:100934001B68BA7952000132012101FA02F2D24352
:100944001146404A0B4013603B79002B02D0012B27
:100954000CD016E03C4B1B68BA79012101FA02F273
:10096400D2431146384A0B4013600AE0364B1B68E9
:10097400BA79012101FA02F21146334A0B4313609A
:1009840000BF4FE02F4B1B68BA795200012101FAD6
:1009940002F2D24311462B4A0B401360294B1B68C9
:1009A400BA7952000132012101FA02F21146254AB4
:1009B4000B4313603B79002B02D0012B0CD016E0C3
:1009C400214B1B68BA79012101FA02F2D243114684
:1009D4001D4A0B4013600AE01B4B1B68BA790121C6
:1009E40001FA02F21146184A0B43136000BF19E0E2
:1009F400144B1B68BA795200012101FA02F2D24366
:100A04001146104A0B4013600E4B1B68BA79520012
:100A14000132012101FA02F2D2431146094A0B4084
:100A2400136000BF9AE07B79012B0FD0022B43D0D7
:100A3400002B77D090E000BF001002400014024069
:100A4400041402400018024004180240464B1B687C
:100A5400BA795200012101FA02F21146424A0B43CB
:100A64001360414B1B68BA7952000132012101FA2B
:100A740002F2D24311463C4A0B4013603B79002BEF
:100A840002D0012B0CD016E0384B1B68BA79012137
:100A940001FA02F2D2431146344A0B4013600AE0D1
:100AA400324B1B68BA79012101FA02F211462F4A2E
:100AB4000B43136000BF4FE02B4B1B68BA79520005
:100AC400012101FA02F2D2431146274A0B40136076
:100AD400254B1B68BA7952000132012101FA02F256
:100AE4001146214A0B4313603B79002B02D0012BA2
:100AF4000CD016E01D4B1B68BA79012101FA02F2F1
:100B0400D2431146194A0B4013600AE0174B1B6885
:100B1400BA79012101FA02F21146144A0B43136017
:100B240000BF19E0104B1B68BA795200012101FA89
:100B340002F2D24311460C4A0B4013600A4B1B6865
:100B4400BA7952000132012101FA02F2D24311466C
:100B5400054A0B40136000BF00E000BF00BF083728
:100B6400BD4690BC704700BF001C0240041C0240FC
:100B740080B483B000AF0346FB710B46BB711346D0
:100B84007B71FB79072B00F2B18101A252F823F0AB
:100B9400B50B0008210C0008850C0008E30C0008C4
:100BA400410D00089F0D0008FD0D0008930E00087C
:100BB400BB79012B02D0022B14D02EE09B4B4FF0BB
:100BC40055321A607B79002B02D0012B04D008E047
:100BD400974B00221A6004E0954B4FF6FF721A609F
:100BE40000BF1AE0914B1B68904A43F0AA3313608C
:100BF4007B79002B02D0012B05D00DE08C4B8C4A65
:100C04001B68136008E08A4B1B68894A6FEA134328
:100C14006FEA0343136000BF00BF68E1BB79012B97
:100C240002D0022B17D02AE0804B1B687F4A43F086
:100C3400553313607B79002B02D0012B05D009E0DA
:100C44007C4B7C4A1B68136004E07A4B4FF6FF72BE
:100C54001A6000BF13E0784B4FF0AA321A607B7918
:100C6400002B02D0012B04D008E0724B00221A6042
:100C740004E0704B4FF6FF721A6000BF00BF36E10C
:100C8400BB79012B02D0022B14D027E06B4B4FF021
:100C940055321A607B79002B02D0012B04D008E076
:100CA400674B00221A6004E0654B4FF6FF721A602E
:100CB40000BF13E0614B4FF0AA321A607B79002B1E
:100CC40002D0012B04D008E05D4B00221A6004E03E
:100CD4005B4B4FF6FF721A6000BF00BF07E1BB79A0
:100CE400012B02D0022B14D027E0564B4FF0553283
:100CF4001A607B79002B02D0012B04D008E0524B00
:100D040000221A6004E0504B4FF6FF721A6000BFD5
:100D140013E04C4B4FF0AA321A607B79002B02D0BF
:100D2400012B04D008E0484B00221A6004E0464B33
:100D34004FF6FF721A6000BF00BFD8E0BB79012BE9
:100D440002D0022B14D027E0404B4FF055321A60EA
:100D54007B79002B02D0012B04D008E03C4B00220D
:100D64001A6004E03A4B4FF6FF721A6000BF13E0BA
:100D7400364B4FF0AA321A607B79002B02D0012B3C
:100D840004D008E0324B00221A6004E0304B4FF6E6
:100D9400FF721A6000BF00BFA9E0BB79012B02D02B
:100DA400022B14D027E02B4B4FF055321A607B797D
:100DB400002B02D0012B04D008E0274B00221A603C
:100DC40004E0254B4FF6FF721A6000BF13E0214B7D
:100DD4004FF0AA321A607B79002B02D0012B04D089
:100DE40008E01D4B00221A6004E01B4B4FF6FF7213
:100DF4001A6000BF00BF7AE0BB79012B02D0022B3E
:100E040030D043E0154B4FF055321A607B79002BFC
:100E140002D0012B04D008E0114B00221A6004E038
:100E24000F4B4FF6FF721A6000BF2FE00000024024
:100E3400040002400404024000040240000802408E
:100E440004080240000C0240040C0240001002405E
:100E5400041002400014024004140240001802402E
:100E640004180240254B4FF0AA321A607B79002BFC
:100E740002D0012B04D008E0214B00221A6004E0C8
:100E84001F4B4FF6FF721A6000BF00BF2FE0BB7903
:100E9400012B02D0022B14D027E01A4B4FF055320D
:100EA4001A607B79002B02D0012B04D008E0164B8A
:100EB40000221A6004E0144B4FF6FF721A6000BF60
:100EC40013E0104B4FF0AA321A607B79002B02D04A
:100ED400012B04D008E00C4B00221A6004E00A4BFA
:100EE4004FF6FF721A6000BF00BF00E000BF00BFF2
:100EF4000C37BD465DF8047B704700BF0018024004
:100F040004180240001C0240041C024080B483B058
:100F140000AF0346FB710B46BB7113467B71FB7933
:100F2400072B00F2FF8001A252F823F0510F0008B2
:100F34008D0F0008C90F00080510000841100008B3
:100F44007B100008B5100008EF1000087B79012B16
:100F54000AD1804B1B68BA79012101FA02F21146C9
:100F64007C4A0B431360DFE07B79002B40F0DC808C
:100F7400784B1B68BA79012101FA02F2D243114677
:100F8400744A0B401360CFE07B79012B0AD1724B7A
:100F94001B68BA79012101FA02F211466E4A0B4329
:100FA4001360C3E07B79002B40F0C0806A4B1B6860
:100FB400BA79012101FA02F2D2431146664A0B4082
:100FC4001360B3E07B79012B0AD1644B1B68BA79B7
:100FD400012101FA02F21146604A0B431360A7E0B3
:100FE4007B79002B40F0A4805C4B1B68BA7901210B
:100FF40001FA02F2D2431146584A0B40136097E0BB
:101004007B79012B0AD1564B1B68BA79012101FA6D
:1010140002F21146524A0B4313608BE07B79002B9A
:1010240040F088804E4B1B68BA79012101FA02F224
:10103400D24311464A4A0B4013607BE07B79012B73
:101044000AD1484B1B68BA79012101FA02F2114610
:10105400444A0B4313606FE07B79002B6CD1414B06
:101064001B68BA79012101FA02F2D24311463D4AC2
:101074000B40136060E07B79012B0AD13A4B1B686B
:10108400BA79012101FA02F21146374A0B4313607F
:1010940054E07B79002B51D1334B1B68BA79012181
:1010A40001FA02F2D24311462F4A0B40136045E085
:1010B4007B79012B0AD12B4B1B68BA79012101FAE8
:1010C40002F21146274A0B43136039E07B79002B67
:1010D40036D1264B1B68BA79012101FA02F2D243B8
:1010E4001146224A0B4013602AE07B79012B0AD176
:1010F4001F4B1B68BA79012101FA02F211461C4AFE
:101104000B4313601EE07B79002B1BD1184B1B682B
:10111400BA79012101FA02F2D2431146144A0B4072
:1011240013600FE000BF0EE000BF0CE000BF0AE058
:1011340000BF08E000BF06E000BF04E000BF02E01B
:1011440000BF00E000BF00BF0C37BD465DF8047B64
:10115400704700BF14000240140402401408024007
:10116400140C0240141002401414024014180240DB
:10117400141C024080B485B000AF03460A46FB71DC
:101184001346BB71FB79072B62D801A252F823F0F6
:10119400B5110008C9110008DD110008F11100089B
:1011A40005120008191200082D1200084112000847
:1011B4002B4B1A68BB7922FA03F3DBB203F0010369
:1011C400FB7346E0274B1A68BB7922FA03F3DBB2C0
:1011D40003F00103FB733CE0234B1A68BB7922FA4A
:1011E40003F3DBB203F00103FB7332E01F4B1A6815
:1011F400BB7922FA03F3DBB203F00103FB7328E0AB
:101204001B4B1A68BB7922FA03F3DBB203F0010328
:10121400FB731EE0174B1A68BB7922FA03F3DBB2A7
:1012240003F00103FB7314E0134B1A68BB7922FA31
:1012340003F3DBB203F00103FB730AE00F4B1A68FC
:10124400BB7922FA03F3DBB203F00103FB7300E082
:1012540000BFFB7B18461437BD465DF8047B70471E
:10126400100002401004024010080240100C02401A
:10127400101002401014024010180240101C0240CA
:1012840080B485B000AF78600023FB600DE00023DC
:101294007B8103E000BF7B8901337B817B89B3F5CC
:1012A4000D7FF7D9FB680133FB60FA687B689A42CB
:1012B400EDD300BF1437BD465DF8047B704780B59D
:1012C40082B000AF0346FB710221002000F036FA21
:1012D4000221002000F032FA002301220221022020
:1012E400FEF776FF0023012203210220FEF770FFA0
:1012F400FB79002B39D10023012204210220FEF7BF
:1013040067FF0023012205210220FEF761FF00236D
:10131400012206210220FEF75BFF002301220721A0
:101324000220FEF755FF1E20FFF7AAFF022000F05F
:101334003DF80120FFF7A4FF282000F037F8012032
:10134400FFF79EFF0E2000F031F80120FFF798FF11
:10135400012000F02BF80120FFF792FF062000F097
:1013640025F80320FFF78CFF1CE0FB79012B19D132
:10137400002201210120FFF7FBFB1E20FFF780FF65
:10138400382000F013F80120FFF77AFF0E2000F058
:101394000DF80120FFF774FF012000F007F8032087
:1013A400FFF76EFF00BF0837BD4680BD80B582B031
:1013B40000AF0346FB71002202210220FFF7A6FDC5
:1013C400FB791B09DBB203F00103DBB21A460421EB
:1013D4000220FFF79BFDFB795B09DBB203F00103FD
:1013E400DBB21A4605210220FFF790FDFB799B0929
:1013F400DBB203F00103DBB21A4606210220FFF739
:1014040085FDFB79DB09DBB21A4607210220FFF7D1
:101414007DFD012203210220FFF778FD0120FFF763
:101424002FFF002203210220FFF770FD0120FFF7A8
:1014340027FFFB7903F00103DBB21A4604210220E3
:10144400FFF764FDFB795B08DBB203F00103DBB259
:101454001A4605210220FFF759FDFB799B08DBB2F0
:1014640003F00103DBB21A4606210220FFF74EFD0A
:10147400FB79DB08DBB203F00103DBB21A46072178
:101484000220FFF743FD012203210220FFF73EFD66
:101494000120FFF7F5FE002203210220FFF736FDAD
:1014A4000120FFF7EDFE00BF0837BD4680BD80B5C3
:1014B40082B000AF0346FB710520FFF7E1FE012275
:1014C40002210220FFF722FDFB791B09DBB203F0A6
:1014D4000103DBB21A4604210220FFF717FDFB7952
:1014E4005B09DBB203F00103DBB21A4605210220DB
:1014F400FFF70CFDFB799B09DBB203F00103DBB2C0
:101504001A4606210220FFF701FDFB79DB09DBB255
:101514001A4607210220FFF7F9FC012203210220C9
:10152400FFF7F4FC0120FFF7ABFE002203210220A9
:10153400FFF7ECFC0120FFF7A3FEFB7903F00103A6
:10154400DBB21A4604210220FFF7E0FCFB795B08BA
:10155400DBB203F00103DBB21A4605210220FFF7D8
:10156400D5FCFB799B08DBB203F00103DBB21A461E
:1015740006210220FFF7CAFCFB79DB08DBB203F08B
:101584000103DBB21A4607210220FFF7BFFC012248
:1015940003210220FFF7BAFC0120FFF771FE0022AD
:1015A40003210220FFF7B2FC0120FFF769FE00BF10
:1015B4000837BD4680BD80B584B000AF7860032095
:1015C400FFF75EFE0023FB7309E0FB7B7A6813449C
:1015D4001B781846FFF76BFFFB7B0133FB73FB7B28
:1015E4007A6813441B78002BEFD100BF1037BD4637
:1015F40080BD000080B588B000AF78600320FFF79D
:101604003FFE0023FB777B68002B1CD13020FFF7C3
:101614004EFF18E079681A4BA3FB0123DA0813463E
:101624009B0013445B00CA1AFB7F591CF977D2B2A2
:1016340007F120010B4403F8142C7B68104AA2FB29
:101644000323DB087B607B68002B11D0FB7F0F2B0F
:10165400E0D90DE0FB7F013BFB77FB7F07F1200224
:10166400134413F8143C3033DBB21846FFF71FFF62
:10167400FB7F002BEED100BF2037BD4680BD00BFED
:10168400CDCCCCCC80B582B000AF03460A46FB710A
:101694001346BB71FB79002B02D0012B0AD016E054
:1016A400BB790F2B10D8BB79803BDBB21846FFF710
:1016B4007DFE09E0BB790F2B08D8BB79403BDBB238
:1016C4001846FFF773FE01E000BF00E000BF00BF53
:1016D4000837BD4680BD000080B483B000AF00234E
:1016E4007B60144B1B68134A43F00103136002E050
:1016F4007B6801337B600F4B1B685B0803F00103BD
:10170400002B04D17B6842F20F729342F0D90A4B4A
:101714001B68094A23F001031360074B1B68064A40
:1017240023F00203136000BF0C37BD465DF8047B51
:10173400704700BF003802400838024080B483B0CC
:1017440000AF03460A46FB711346BB71FB79032BBA
:1017540036D801A252F823F06D1700088317000849
:1017640099170008AF170008184B1B68BA790121B4
:1017740001FA02F21146154A0B43136020E0144BA0
:101784001B68BA79012101FA02F21146104A0B438F
:10179400136015E00F4B1B68BA79012101FA02F2BC
:1017A40011460C4A0B4313600AE00B4B1B68BA79D1
:1017B400012101FA02F21146074A0B43136000BFEC
:1017C40000BF0C37BD465DF8047B704730380240DB
:1017D40034380240403802404438024080B400AFFC
:1017E40000BFBD465DF8047B704780B500AF0023A1
:1017F400012202210120FEF7EBFC0022022101203C
:10180400FFF784FB06210120FFF7B4FC0346002BFD
:1018140001D10723A7E007210120FFF7ABFC034612
:10182400002B01D102239EE008210120FFF7A2FC36
:101834000346002B01D1032395E009210120FFF782
:1018440099FC0346002B01D12D238CE000230122B7
:1018540003210120FEF7BCFC002203210120FFF735
:1018640055FB06210120FFF785FC0346002B01D11F
:10187400052378E007210120FFF77CFC0346002BB9
:1018840001D106236FE008210120FFF773FC034612
:10189400002B01D1072366E009210120FFF76AFC30
:1018A4000346002B01D178235DE0002301220421AB
:1018B4000120FEF78DFC002204210120FFF726FB06
:1018C40006210120FFF756FC0346002B01D1092312
:1018D40049E007210120FFF74DFC0346002B01D10D
:1018E4000A2340E008210120FFF744FC0346002BB3
:1018F40001D10B2337E009210120FFF73BFC03460C
:10190400002B01D12F232EE00023012205210120E9
:10191400FEF75EFC002205210120FFF7F7FA0621FD
:101924000120FFF727FC0346002B01D10D231AE009
:1019340007210120FFF71EFC0346002B01D10E23D3
:1019440011E008210120FFF715FC0346002B01D10B
:101954000F2308E009210120FFF70CFC0346002BAC
:101964007FF445AF1023184680BD000080B582B0D7
:1019740000AFFFF7B1FE00210020FFF7DFFE0121D9
:101984000020FFF7DBFE0020FFF799FCFFF726FF9E
:1019940003210020FFF776FE0948FFF70CFEFFF74E
:1019A40024FF0346FB71FB79092BF8D8052101209C
:1019B400FFF768FEFB791846FFF71CFEEFE700BF50
:1019C4007C1A00080D488546AFF300800C480D4989
:1019D4000D4A002302E0D458C4500433C4188C4286
:1019E400F9D30A4A0A4C002301E013600432A242EC
:1019F400FBD300F011F8FFF7B9FFFEE700800120E8
:101A04000000002000000020901A000800000020C0
:101A14001C000020FEE7000070B50D4E0D4CA41B09
:101A2400A4100025A54209D10B4E0C4C00F018F867
:101A3400A41BA4100025A54205D170BD56F825307D
:101A440098470135EEE756F8253098470135F2E717
:101A5400881A0008881A0008881A00088C1A0008D6
:101A6400F8B500BFF8BC08BC9E467047F8B500BF87
:081A7400F8BC08BC9E46704757
:0C1A7C004B6579506164203A00000000C6
:041A8800B901000898
:041A8C0095010008B8
:04000005080019C90D
:00000001FF
