:020000040800F2
:100000000080012091160008E1160008E1160008A2
:10001000E1160008E1160008E116000800000000E3
:10002000000000000000000000000000E1160008D1
:10003000E116000800000000E1160008E1160008C3
:1000400000000000E1160008E1160008E1160008B3
:10005000E1160008E1160008E1160008E1160008A4
:10006000E1160008E1160008E11600080000000093
:100070000000000000000000000000000000000080
:100080000000000000000000E11600080000000071
:10009000000000000000000000000000E116000861
:1000A000E1160008E1160008E1160008E116000854
:1000B000E1160008E116000800000000E116000843
:1000C000E1160008E1160008E1160008E116000834
:1000D000E116000800000000000000000000000021
:1000E000E1160008E1160008E11600080000000013
:1000F0000000000000000000000000000000000000
:1001000000000000E116000800000000E1160008F1
:1001100000000000000000000000000000000000DF
:1001200000000000000000000000000000000000CF
:1001300000000000000000000000000000000000BF
:10014000000000000000000000000000E1160008B0
:10015000000000000000000000000000000000009F
:10016000E1160008E1160008000000000000000091
:10017000000000000000000000000000000000007F
:1001800000000000E1160008000000000000000070
:04019000E11600086C
:1001940010B5054C237833B9044B13B10448AFF3BD
:1001A40000800123237010BD000000200000000027
:1001B4002C17000808B5034B1BB103490348AFF3E0
:1001C400008008BD00000000040000202C17000877
:1001D40090B482B000AF0446084611461A4623463E
:1001E400FB710346BB710B467B7113463B71FB7974
:1001F400072B00F2B28401A252F823F02102000876
:10020400410300085F04000897050008B5060008CC
:10021400EF0700080D0900082B0A00087B79012B61
:1002240004D0022B38D0002B6CD085E0AA4B1B687D
:10023400BA795200012101FA02F21146A64A0B438F
:100244001360A54B1B68BA7952000132012101FAEF
:1002540002F2D2431146A04A0B4013603B79002BB3
:1002640002D0012B0CD016E09C4B1B68BA790121FB
:1002740001FA02F2D2431146984A0B4013600AE095
:10028400964B1B68BA79012101FA02F21146934A8E
:100294000B43136000BF4FE08F4B1B68BA795200C9
:1002A400012101FA02F2D24311468B4A0B4013603A
:1002B400894B1B68BA7952000132012101FA02F21A
:1002C4001146854A0B4313603B79002B02D0012B66
:1002D4000CD016E0814B1B68BA79012101FA02F2B5
:1002E400D24311467D4A0B4013600AE07B4B1B68E6
:1002F400BA79012101FA02F21146784A0B431360DC
:1003040000BF19E0744B1B68BA795200012101FA4D
:1003140002F2D2431146704A0B4013606E4B1B68C5
:10032400BA7952000132012101FA02F2D243114694
:10033400694A0B40136000BF00F010BC7B79012BAD
:1003440004D0022B38D0002B6CD085E0644B1B68A2
:10035400BA795200012101FA02F21146604A0B43B4
:1003640013605F4B1B68BA7952000132012101FA14
:1003740002F2D24311465A4A0B4013603B79002BD8
:1003840002D0012B0CD016E0564B1B68BA79012120
:1003940001FA02F2D2431146524A0B4013600AE0BA
:1003A400504B1B68BA79012101FA02F211464D4AF9
:1003B4000B43136000BF4FE0494B1B68BA795200EE
:1003C400012101FA02F2D2431146454A0B4013605F
:1003D400434B1B68BA7952000132012101FA02F23F
:1003E40011463F4A0B4313603B79002B02D0012B8B
:1003F4000CD016E03B4B1B68BA79012101FA02F2DA
:10040400D2431146374A0B4013600AE0354B1B6850
:10041400BA79012101FA02F21146324A0B43136000
:1004240000BF19E02E4B1B68BA795200012101FA72
:1004340002F2D24311462A4A0B401360284B1B6830
:10044400BA7952000132012101FA02F2D243114673
:10045400234A0B40136000BF80E37B79012B04D057
:10046400022B45D0002B79D092E01F4B1B68BA7940
:100474005200012101FA02F211461B4A0B43136098
:10048400194B1B68BA7952000132012101FA02F2B8
:10049400D2431146144A0B4013603B79002B02D01F
:1004A400012B0CD016E0114B1B68BA79012101FA1B
:1004B40002F2D24311460D4A0B4013600AE00B4B83
:1004C4001B68BA79012101FA02F21146074A0B436B
:1004D400136000BF5CE000BF000002400400024063
:1004E40000040240040402400008024004080240E0
:1004F400A94B1B68BA795200012101FA02F2D243D6
:100504001146A54A0B401360A34B1B68BA795200ED
:100514000132012101FA02F211469F4A0B43136092
:100524003B79002B02D0012B0CD016E09B4B1B68AF
:10053400BA79012101FA02F2D2431146974A0B40DB
:1005440013600AE0954B1B68BA79012101FA02F2A3
:100554001146924A0B43136000BF19E08E4B1B688F
:10056400BA795200012101FA02F2D24311468A4AB1
:100574000B401360884B1B68BA7952000132012189
:1005840001FA02F2D2431146834A0B40136000BFC2
:10059400E4E27B79012B04D0022B38D0002B6CD001
:1005A40085E07F4B1B68BA795200012101FA02F2FF
:1005B40011467B4A0B431360794B1B68BA7952008E
:1005C4000132012101FA02F2D2431146744A0B406E
:1005D40013603B79002B02D0012B0CD016E0714B39
:1005E4001B68BA79012101FA02F2D24311466D4A1D
:1005F4000B4013600AE06C4B1B68BA79012101FAC5
:1006040002F21146684A0B43136000BF4FE0644B8B
:100614001B68BA795200012101FA02F2D243114651
:100624005F4A0B4013605E4B1B68BA79520001327B
:10063400012101FA02F21146594A0B4313603B7936
:10064400002B02D0012B0CD016E0564B1B68BA7954
:10065400012101FA02F2D2431146524A0B401360BF
:100664000AE0504B1B68BA79012101FA02F21146E3
:100674004C4A0B43136000BF19E0494B1B68BA791D
:100684005200012101FA02F2D2431146444A0B40BE
:100694001360434B1B68BA7952000132012101FAFD
:1006A40002F2D24311463E4A0B40136000BF55E2AA
:1006B4007B79012B04D0022B38D0002B7AD093E025
:1006C4003A4B1B68BA795200012101FA02F2114631
:1006D400364A0B431360354B1B68BA79520001321A
:1006E400012101FA02F2D2431146304A0B40136051
:1006F4003B79002B02D0012B0CD016E02C4B1B684D
:10070400BA79012101FA02F2D2431146284A0B4078
:1007140013600AE0264B1B68BA79012101FA02F240
:100724001146234A0B43136000BF5DE01F4B1B6857
:10073400BA795200012101FA02F2D24311461B4A4E
:100744000B401360194B1B68BA7952000132012126
:1007540001FA02F21146154A0B4313603B79002B50
:1007640002D0012B0CD016E0114B1B68BA79012181
:1007740001FA02F2D24311460D4A0B4013600AE01B
:100784000B4B1B68BA79012101FA02F21146084A9F
:100794000B43136000BF27E0000802400408024036
:1007A400000C0240040C0240040402400010024009
:1007B40004100240A04B1B68BA795200012101FACF
:1007C40002F2D24311469C4A0B4013609A4B1B68B9
:1007D400BA7952000132012101FA02F2D2431146E0
:1007E400954A0B40136000BFB8E17B79012B04D01C
:1007F400022B38D0002B6CD085E0904B1B68BA7963
:100804005200012101FA02F211468C4A0B43136093
:100814008A4B1B68BA7952000132012101FA02F2B3
:10082400D2431146854A0B4013603B79002B02D01A
:10083400012B0CD016E0824B1B68BA79012101FA16
:1008440002F2D24311467E4A0B4013600AE07C4B0D
:100854001B68BA79012101FA02F21146784A0B4366
:10086400136000BF4FE0754B1B68BA795200012139
:1008740001FA02F2D2431146704A0B4013606F4BE7
:100884001B68BA7952000132012101FA02F21146C1
:100894006A4A0B4313603B79002B02D0012B0CD026
:1008A40016E0674B1B68BA79012101FA02F2D243C0
:1008B4001146634A0B4013600AE0614B1B68BA7926
:1008C400012101FA02F211465D4A0B43136000BF95
:1008D40019E05A4B1B68BA795200012101FA02F25D
:1008E400D2431146554A0B401360544B1B68BA79E6
:1008F40052000132012101FA02F2D24311464F4A59
:100904000B40136000BF29E17B79012B04D0022B3B
:1009140038D0002B6CD085E04A4B1B68BA79520062
:10092400012101FA02F21146464A0B431360454B7A
:100934001B68BA7952000132012101FA02F2D24352
:100944001146404A0B4013603B79002B02D0012B27
:100954000CD016E03C4B1B68BA79012101FA02F273
:10096400D2431146384A0B4013600AE0364B1B68E9
:10097400BA79012101FA02F21146334A0B4313609A
:1009840000BF4FE02F4B1B68BA795200012101FAD6
:1009940002F2D24311462B4A0B401360294B1B68C9
:1009A400BA7952000132012101FA02F21146254AB4
:1009B4000B4313603B79002B02D0012B0CD016E0C3
:1009C400214B1B68BA79012101FA02F2D243114684
:1009D4001D4A0B4013600AE01B4B1B68BA790121C6
:1009E40001FA02F21146184A0B43136000BF19E0E2
:1009F400144B1B68BA795200012101FA02F2D24366
:100A04001146104A0B4013600E4B1B68BA79520012
:100A14000132012101FA02F2D2431146094A0B4084
:100A2400136000BF9AE07B79012B0FD0022B43D0D7
:100A3400002B77D090E000BF001002400014024069
:100A4400041402400018024004180240464B1B687C
:100A5400BA795200012101FA02F21146424A0B43CB
:100A64001360414B1B68BA7952000132012101FA2B
:100A740002F2D24311463C4A0B4013603B79002BEF
:100A840002D0012B0CD016E0384B1B68BA79012137
:100A940001FA02F2D2431146344A0B4013600AE0D1
:100AA400324B1B68BA79012101FA02F211462F4A2E
:100AB4000B43136000BF4FE02B4B1B68BA79520005
:100AC400012101FA02F2D2431146274A0B40136076
:100AD400254B1B68BA7952000132012101FA02F256
:100AE4001146214A0B4313603B79002B02D0012BA2
:100AF4000CD016E01D4B1B68BA79012101FA02F2F1
:100B0400D2431146194A0B4013600AE0174B1B6885
:100B1400BA79012101FA02F21146144A0B43136017
:100B240000BF19E0104B1B68BA795200012101FA89
:100B340002F2D24311460C4A0B4013600A4B1B6865
:100B4400BA7952000132012101FA02F2D24311466C
:100B5400054A0B40136000BF00E000BF00BF083728
:100B6400BD4690BC704700BF001C0240041C0240FC
:100B740080B483B000AF0346FB710B46BB711346D0
:100B84007B71FB79072B00F2FF8001A252F823F05E
:100B9400B50B0008F10B00082D0C0008690C0008C7
:100BA400A50C0008DF0C0008190D0008530D0008FF
:100BB4007B79012B0AD1804B1B68BA79012101FA98
:100BC40002F211467C4A0B431360DFE07B79002B71
:100BD40040F0DC80784B1B68BA79012101FA02F2FB
:100BE400D2431146744A0B401360CFE07B79012B4A
:100BF4000AD1724B1B68BA79012101FA02F211463B
:100C04006E4A0B431360C3E07B79002B40F0C08035
:100C14006A4B1B68BA79012101FA02F2D2431146E8
:100C2400664A0B401360B3E07B79012B0AD1644B15
:100C34001B68BA79012101FA02F21146604A0B439A
:100C44001360A7E07B79002B40F0A4805C4B1B6809
:100C5400BA79012101FA02F2D2431146584A0B40F3
:100C6400136097E07B79012B0AD1564B1B68BA7944
:100C7400012101FA02F21146524A0B4313608BE040
:100C84007B79002B40F088804E4B1B68BA79012198
:100C940001FA02F2D24311464A4A0B4013607BE048
:100CA4007B79012B0AD1484B1B68BA79012101FADF
:100CB40002F21146444A0B4313606FE07B79002B28
:100CC4006CD1414B1B68BA79012101FA02F2D2437B
:100CD40011463D4A0B40136060E07B79012B0AD139
:100CE4003A4B1B68BA79012101FA02F21146374ADC
:100CF4000B43136054E07B79002B51D1334B1B68B9
:100D0400BA79012101FA02F2D24311462F4A0B406B
:100D1400136045E07B79012B0AD12B4B1B68BA7910
:100D2400012101FA02F21146274A0B43136039E00C
:100D34007B79002B36D1264B1B68BA79012101FA45
:100D440002F2D2431146224A0B4013602AE07B7917
:100D5400012B0AD11F4B1B68BA79012101FA02F257
:100D640011461C4A0B4313601EE07B79002B1BD1F8
:100D7400184B1B68BA79012101FA02F2D2431146D9
:100D8400144A0B4013600FE000BF0EE000BF0CE0FC
:100D940000BF0AE000BF08E000BF06E000BF04E0B7
:100DA40000BF02E000BF00E000BF00BF0C37BD463B
:100DB4005DF8047B704700BF140002401404024035
:100DC40014080240140C024014100240141402408F
:100DD40014180240141C024080B483B000AF0023F6
:100DE4007B60144B1B68134A43F00103136002E059
:100DF4007B6801337B600F4B1B685B0803F00103C6
:100E0400002B04D17B6842F20F729342F0D90A4B53
:100E14001B68094A23F001031360074B1B68064A49
:100E240023F00203136000BF0C37BD465DF8047B5A
:100E3400704700BF003802400838024080B483B0D5
:100E440000AF03460A46FB711346BB71FB79032BC3
:100E540036D801A252F823F06D0E0008830E000864
:100E6400990E0008AF0E0008184B1B68BA790121CF
:100E740001FA02F21146154A0B43136020E0144BA9
:100E84001B68BA79012101FA02F21146104A0B4398
:100E9400136015E00F4B1B68BA79012101FA02F2C5
:100EA40011460C4A0B4313600AE00B4B1B68BA79DA
:100EB400012101FA02F21146074A0B43136000BFF5
:100EC40000BF0C37BD465DF8047B704730380240E4
:100ED40034380240403802404438024080B500AF04
:100EE4000023012201210020FFF772F900230122CF
:100EF40002210020FFF76CF90023012203210020C6
:100F0400FFF766F90023012204210020FFF760F9AE
:100F14000023012205210020FFF75AF900230122B2
:100F240006210020FFF754F90023012207210020A5
:100F3400FFF74EF90023012200210020FFF748F9B2
:100F44000023012208210020FFF742F900BF80BDE1
:100F540080B582B000AF03460A46FB711346BB71ED
:100F6400FB79002B29D1BB79002B26D1012000F07D
:100F740060FB012201210020FFF7FAFD012202217A
:100F84000020FFF7F5FD012203210020FFF7F0FD0B
:100F9400012204210020FFF7EBFD0122052100209E
:100FA400FFF7E6FD012206210020FFF7E1FD002204
:100FB40007210020FFF7DCFD78E1FB79002B26D127
:100FC400BB79012B23D1002201210020FFF7D0FDA2
:100FD400012202210020FFF7CBFD01220321002082
:100FE400FFF7C6FD002204210020FFF7C1FD002207
:100FF40005210020FFF7BCFD002206210020FFF799
:10100400B7FD002207210020FFF7B2FD4EE1FB7976
:10101400002B26D1BB79022B23D1012201210020F0
:10102400FFF7A6FD012202210020FFF7A1FD002207
:1010340003210020FFF79CFD012204210020FFF77B
:1010440097FD012205210020FFF792FD00220621D1
:101054000020FFF78DFD012207210020FFF788FD06
:1010640024E1FB79002B26D1BB79032B23D1012268
:1010740001210020FFF77CFD012202210020FFF75F
:1010840077FD012203210020FFF772FD01220421D4
:101094000020FFF76DFD002205210020FFF768FD09
:1010A400002206210020FFF763FD01220721002012
:1010B400FFF75EFDFAE0FB79002B26D1BB79042B08
:1010C40023D1002201210020FFF752FD0122022139
:1010D4000020FFF74DFD012203210020FFF748FD0A
:1010E400002204210020FFF743FD002205210020F7
:1010F400FFF73EFD012206210020FFF739FD012202
:1011040007210020FFF734FDD0E0FB79002B26D126
:10111400BB79052B23D1012201210020FFF728FDF3
:10112400002202210020FFF723FD012203210020D9
:10113400FFF71EFD012204210020FFF719FD002204
:1011440005210020FFF714FD012206210020FFF7EE
:101154000FFD012207210020FFF70AFDA6E0FB791D
:10116400002B26D1BB79062B23D10122012100209B
:10117400FFF7FEFC002202210020FFF7F9FC012208
:1011840003210020FFF7F4FC012204210020FFF7D3
:10119400EFFC012205210020FFF7EAFC01220621D1
:1011A4000020FFF7E5FC012207210020FFF7E0FC07
:1011B4007CE0FB79002B26D1BB79072B23D10122BC
:1011C40001210020FFF7D4FC012202210020FFF7B7
:1011D400CFFC012203210020FFF7CAFC00220421D6
:1011E4000020FFF7C5FC002205210020FFF7C0FC0A
:1011F400002206210020FFF7BBFC0022072100206B
:10120400FFF7B6FC52E0FB79002B26D1BB79082B03
:1012140023D1012201210020FFF7AAFC012202218F
:101224000020FFF7A5FC012203210020FFF7A0FC0A
:10123400012204210020FFF79BFC0122052100204C
:10124400FFF796FC012206210020FFF791FC012202
:1012540007210020FFF78CFC28E0FB79002B25D127
:10126400BB79092B22D1012201210020FFF780FC48
:10127400012202210020FFF77BFC01220321002030
:10128400FFF776FC012204210020FFF771FC002205
:1012940005210020FFF76CFC012206210020FFF746
:1012A40067FC012207210020FFF762FCFB79012B78
:1012B40026D1BB79002B23D1012201210020FFF785
:1012C40057FC012202210020FFF752FC01220321D6
:1012D4000020FFF74DFC012204210020FFF748FC09
:1012E400012205210020FFF743FC012206210020F2
:1012F400FFF73EFC002207210020FFF739FC79E1CB
:10130400FB79012B26D1BB79012B23D100220121AA
:101314000020FFF72DFC012202210020FFF728FC0A
:10132400012203210020FFF723FC002204210020D6
:10133400FFF71EFC002205210020FFF719FC002204
:1013440006210020FFF714FC002207210020FFF7EC
:101354000FFC4FE1FB79012B26D1BB79022B23D162
:10136400012201210020FFF703FC012202210020B9
:10137400FFF7FEFB002203210020FFF7F9FB012207
:1013840004210020FFF7F4FB012205210020FFF7D0
:10139400EFFB002206210020FFF7EAFB01220721D0
:1013A4000020FFF7E5FB25E1FB79012B26D1BB7972
:1013B400032B23D1012201210020FFF7D9FB0122B5
:1013C40002210020FFF7D4FB012203210020FFF7B4
:1013D400CFFB012204210020FFF7CAFB00220521D4
:1013E4000020FFF7C5FB002206210020FFF7C0FB09
:1013F400012207210020FFF7BBFBFBE0FB79012B57
:1014040026D1BB79042B23D1002201210020FFF730
:10141400AFFB012202210020FFF7AAFB01220321D6
:101424000020FFF7A5FB002204210020FFF7A0FB0A
:10143400002205210020FFF79BFB0122062100204A
:10144400FFF796FB012207210020FFF791FBD1E073
:10145400FB79012B26D1BB79052B23D10122012154
:101464000020FFF785FB002202210020FFF780FB0C
:10147400012203210020FFF77BFB0122042100202D
:10148400FFF776FB002205210020FFF771FB012204
:1014940006210020FFF76CFB012207210020FFF743
:1014A40067FBA7E0FB79012B26D1BB79062B23D15F
:1014B400012201210020FFF75BFB00220221002012
:1014C400FFF756FB012203210020FFF751FB012205
:1014D40004210020FFF74CFB012205210020FFF727
:1014E40047FB012206210020FFF742FB01220721CE
:1014F4000020FFF73DFB7DE0FB79012B26D1BB7972
:10150400072B23D1012201210020FFF731FB012207
:1015140002210020FFF72CFB012203210020FFF70A
:1015240027FB002204210020FFF722FB00220521D3
:101534000020FFF71DFB002206210020FFF718FB07
:10154400002207210020FFF713FB53E0FB79012B56
:1015540026D1BB79082B23D1012201210020FFF7DA
:1015640007FB012202210020FFF702FB01220321D5
:101574000020FFF7FDFA012204210020FFF7F8FA0A
:10158400012205210020FFF7F3FA012206210020A1
:10159400FFF7EEFA012207210020FFF7E9FA29E01C
:1015A400FB79012B26D1BB79092B23D101220121FF
:1015B4000020FFF7DDFA012202210020FFF7D8FA0C
:1015C400012203210020FFF7D3FA01220421002085
:1015D400FFF7CEFA002205210020FFF7C9FA012205
:1015E40006210020FFF7C4FA012207210020FFF79B
:1015F400BFFAFFE700BF0837BD4680BD80B582B0A3
:1016040000AF0346FB71FB79002B02D0012B06D0FF
:101614000BE0002200210020FFF7AAFA05E00022D7
:1016240008210020FFF7A4FA00BF00BF0837BD4619
:1016340080BD80B582B000AF0346FB71FB79002BFF
:1016440002D0012B06D00BE0012200210020FFF77D
:101654008FFA05E0012208210020FFF789FA00BF74
:1016640000BF0837BD4680BD80B500AFFFF7B4FBAF
:1016740000210020FFF7E2FBFFF730FC0020FFF71A
:10168400BDFF00210020FFF763FCFAE70D48854603
:10169400AFF300800C480D490D4A002302E0D458F2
:1016A400C4500433C4188C42F9D30A4A0A4C0023A8
:1016B40001E013600432A242FBD300F011F8FFF7FB
:1016C400D3FFFEE70080012000000020000000207E
:1016D4004C170008000000201C000020FEE700005A
:1016E40070B50D4E0D4CA41BA4100025A54209D1C4
:1016F4000B4E0C4C00F018F8A41BA4100025A542B6
:1017040005D170BD56F8253098470135EEE756F8F7
:10171400253098470135F2E74417000844170008BC
:101724004417000848170008F8B500BFF8BC08BC07
:101734009E467047F8B500BFF8BC08BC9E4670478B
:04174400B9010008DF
:0417480095010008FF
:040000050800169148
:00000001FF
